{
  "contractName": "Crowdfunding",
  "abi": [
    {
      "anonymous": false,
      "inputs": [
        {
          "indexed": false,
          "internalType": "address",
          "name": "contractAddress",
          "type": "address"
        },
        {
          "indexed": false,
          "internalType": "address",
          "name": "projectStarter",
          "type": "address"
        },
        {
          "indexed": false,
          "internalType": "string",
          "name": "projectTitle",
          "type": "string"
        },
        {
          "indexed": false,
          "internalType": "string",
          "name": "projectDesc",
          "type": "string"
        },
        {
          "indexed": false,
          "internalType": "uint256",
          "name": "deadline",
          "type": "uint256"
        },
        {
          "indexed": false,
          "internalType": "uint256",
          "name": "goalAmount",
          "type": "uint256"
        }
      ],
      "name": "ProjectStarted",
      "type": "event"
    },
    {
      "inputs": [
        {
          "internalType": "string",
          "name": "title",
          "type": "string"
        },
        {
          "internalType": "string",
          "name": "description",
          "type": "string"
        },
        {
          "internalType": "uint256",
          "name": "durationInDays",
          "type": "uint256"
        },
        {
          "internalType": "uint256",
          "name": "amountToRaise",
          "type": "uint256"
        }
      ],
      "name": "startProject",
      "outputs": [],
      "stateMutability": "nonpayable",
      "type": "function"
    },
    {
      "inputs": [],
      "name": "returnAllProjects",
      "outputs": [
        {
          "internalType": "contract Project[]",
          "name": "",
          "type": "address[]"
        }
      ],
      "stateMutability": "view",
      "type": "function",
      "constant": true
    }
  ],
  "bytecode": "0x608060405234801561001057600080fd5b50611d9c806100206000396000f3fe60806040523480156200001157600080fd5b50600436106200003a5760003560e01c806385b6e28e146200003f578063a24a2d161462000061575b600080fd5b6200004962000081565b604051620000589190620003c4565b60405180910390f35b6200007f60048036038101906200007991906200049b565b62000111565b005b606060008054806020026020016040519081016040528092919081815260200182805480156200010757602002820191906000526020600020905b8160009054906101000a900473ffffffffffffffffffffffffffffffffffffffff1673ffffffffffffffffffffffffffffffffffffffff1681526020019060010190808311620000bc575b5050505050905090565b60006200013f6200012f62015180856200023e90919063ffffffff16565b426200025690919063ffffffff16565b905060003388888888868860405162000158906200026e565b6200016a9796959493929190620005ed565b604051809103906000f08015801562000187573d6000803e3d6000fd5b5090506000819080600181540180825580915050600190039060005260206000200160009091909190916101000a81548173ffffffffffffffffffffffffffffffffffffffff021916908373ffffffffffffffffffffffffffffffffffffffff1602179055507f6218c120ad6d836da0bfe4d4c44c8375356514fce6ae39ecdcd483fad6056e6681338a8a8a8a888a6040516200022c98979695949392919062000681565b60405180910390a15050505050505050565b600081836200024e91906200072f565b905092915050565b6000818362000266919062000790565b905092915050565b61157980620007ee83390190565b600081519050919050565b600082825260208201905092915050565b6000819050602082019050919050565b600073ffffffffffffffffffffffffffffffffffffffff82169050919050565b6000819050919050565b6000620002f3620002ed620002e784620002a8565b620002c8565b620002a8565b9050919050565b60006200030782620002d2565b9050919050565b60006200031b82620002fa565b9050919050565b6200032d816200030e565b82525050565b600062000341838362000322565b60208301905092915050565b6000602082019050919050565b600062000367826200027c565b62000373818562000287565b9350620003808362000298565b8060005b83811015620003b75781516200039b888262000333565b9750620003a8836200034d565b92505060018101905062000384565b5085935050505092915050565b60006020820190508181036000830152620003e081846200035a565b905092915050565b600080fd5b600080fd5b600080fd5b600080fd5b600080fd5b60008083601f8401126200041a5762000419620003f2565b5b8235905067ffffffffffffffff8111156200043a5762000439620003f7565b5b602083019150836001820283011115620004595762000458620003fc565b5b9250929050565b6000819050919050565b620004758162000460565b81146200048157600080fd5b50565b60008135905062000495816200046a565b92915050565b60008060008060008060808789031215620004bb57620004ba620003e8565b5b600087013567ffffffffffffffff811115620004dc57620004db620003ed565b5b620004ea89828a0162000401565b9650965050602087013567ffffffffffffffff81111562000510576200050f620003ed565b5b6200051e89828a0162000401565b945094505060406200053389828a0162000484565b92505060606200054689828a0162000484565b9150509295509295509295565b60006200056082620002a8565b9050919050565b620005728162000553565b82525050565b600082825260208201905092915050565b82818337600083830152505050565b6000601f19601f8301169050919050565b6000620005b7838562000578565b9350620005c683858462000589565b620005d18362000598565b840190509392505050565b620005e78162000460565b82525050565b600060a08201905062000604600083018a62000567565b81810360208301526200061981888a620005a9565b9050818103604083015262000630818688620005a9565b9050620006416060830185620005dc565b620006506080830184620005dc565b98975050505050505050565b60006200066982620002a8565b9050919050565b6200067b816200065c565b82525050565b600060c08201905062000698600083018b62000670565b620006a7602083018a62000670565b8181036040830152620006bc81888a620005a9565b90508181036060830152620006d3818688620005a9565b9050620006e46080830185620005dc565b620006f360a0830184620005dc565b9998505050505050505050565b7f4e487b7100000000000000000000000000000000000000000000000000000000600052601160045260246000fd5b60006200073c8262000460565b9150620007498362000460565b9250817fffffffffffffffffffffffffffffffffffffffffffffffffffffffffffffffff048311821515161562000785576200078462000700565b5b828202905092915050565b60006200079d8262000460565b9150620007aa8362000460565b9250827fffffffffffffffffffffffffffffffffffffffffffffffffffffffffffffffff03821115620007e257620007e162000700565b5b82820190509291505056fe60806040526000600760006101000a81548160ff021916908360028111156200002d576200002c620001a8565b5b02179055503480156200003f57600080fd5b506040516200157938038062001579833981810160405281019062000065919062000414565b846000806101000a81548173ffffffffffffffffffffffffffffffffffffffff021916908373ffffffffffffffffffffffffffffffffffffffff1602179055508360059080519060200190620000bd929190620000f8565b508260069080519060200190620000d6929190620000f8565b508060018190555081600481905550600060038190555050505050506200053e565b828054620001069062000509565b90600052602060002090601f0160209004810192826200012a576000855562000176565b82601f106200014557805160ff191683800117855562000176565b8280016001018555821562000176579182015b828111156200017557825182559160200191906001019062000158565b5b50905062000185919062000189565b5090565b5b80821115620001a45760008160009055506001016200018a565b5090565b7f4e487b7100000000000000000000000000000000000000000000000000000000600052602160045260246000fd5b6000604051905090565b600080fd5b600080fd5b600073ffffffffffffffffffffffffffffffffffffffff82169050919050565b60006200021882620001eb565b9050919050565b6200022a816200020b565b81146200023657600080fd5b50565b6000815190506200024a816200021f565b92915050565b600080fd5b600080fd5b6000601f19601f8301169050919050565b7f4e487b7100000000000000000000000000000000000000000000000000000000600052604160045260246000fd5b620002a5826200025a565b810181811067ffffffffffffffff82111715620002c757620002c66200026b565b5b80604052505050565b6000620002dc620001d7565b9050620002ea82826200029a565b919050565b600067ffffffffffffffff8211156200030d576200030c6200026b565b5b62000318826200025a565b9050602081019050919050565b60005b838110156200034557808201518184015260208101905062000328565b8381111562000355576000848401525b50505050565b6000620003726200036c84620002ef565b620002d0565b90508281526020810184848401111562000391576200039062000255565b5b6200039e84828562000325565b509392505050565b600082601f830112620003be57620003bd62000250565b5b8151620003d08482602086016200035b565b91505092915050565b6000819050919050565b620003ee81620003d9565b8114620003fa57600080fd5b50565b6000815190506200040e81620003e3565b92915050565b600080600080600060a08688031215620004335762000432620001e1565b5b6000620004438882890162000239565b955050602086015167ffffffffffffffff811115620004675762000466620001e6565b5b6200047588828901620003a6565b945050604086015167ffffffffffffffff811115620004995762000498620001e6565b5b620004a788828901620003a6565b9350506060620004ba88828901620003fd565b9250506080620004cd88828901620003fd565b9150509295509295909350565b7f4e487b7100000000000000000000000000000000000000000000000000000000600052602260045260246000fd5b600060028204905060018216806200052257607f821691505b602082108103620005385762000537620004da565b5b50919050565b61102b806200054e6000396000f3fe6080604052600436106100c25760003560e01c80637284e4161161007f578063c19d93fb11610059578063c19d93fb14610248578063ce845d1d14610273578063d7bb99ba1461029e578063fbbf93a0146102a8576100c2565b80637284e416146101db57806386f3258614610206578063b2d5ae441461021d576100c2565b806302d05d3f146100c75780630785001c146100f257806337f944cc1461011d57806342e94c90146101485780634a79d50c146101855780634c4cea5a146101b0575b600080fd5b3480156100d357600080fd5b506100dc6102d9565b6040516100e99190610b5d565b60405180910390f35b3480156100fe57600080fd5b506101076102fd565b6040516101149190610b91565b60405180910390f35b34801561012957600080fd5b50610132610303565b60405161013f9190610b91565b60405180910390f35b34801561015457600080fd5b5061016f600480360381019061016a9190610bef565b610309565b60405161017c9190610b91565b60405180910390f35b34801561019157600080fd5b5061019a610321565b6040516101a79190610cb5565b60405180910390f35b3480156101bc57600080fd5b506101c56103af565b6040516101d29190610b91565b60405180910390f35b3480156101e757600080fd5b506101f06103b5565b6040516101fd9190610cb5565b60405180910390f35b34801561021257600080fd5b5061021b610443565b005b34801561022957600080fd5b506102326104c7565b60405161023f9190610cf2565b60405180910390f35b34801561025457600080fd5b5061025d61068b565b60405161026a9190610d84565b60405180910390f35b34801561027f57600080fd5b5061028861069e565b6040516102959190610b91565b60405180910390f35b6102a66106a4565b005b3480156102b457600080fd5b506102bd610835565b6040516102d09796959493929190610d9f565b60405180910390f35b60008054906101000a900473ffffffffffffffffffffffffffffffffffffffff1681565b60015481565b60045481565b60086020528060005260406000206000915090505481565b6005805461032e90610e4b565b80601f016020809104026020016040519081016040528092919081815260200182805461035a90610e4b565b80156103a75780601f1061037c576101008083540402835291602001916103a7565b820191906000526020600020905b81548152906001019060200180831161038a57829003601f168201915b505050505081565b60025481565b600680546103c290610e4b565b80601f01602080910402602001604051908101604052809291908181526020018280546103ee90610e4b565b801561043b5780601f106104105761010080835404028352916020019161043b565b820191906000526020600020905b81548152906001019060200180831161041e57829003601f168201915b505050505081565b60015460035410610487576002600760006101000a81548160ff0219169083600281111561047457610473610d0d565b5b02179055506104816109a7565b506104be565b6004544211156104bd576001600760006101000a81548160ff021916908360028111156104b7576104b6610d0d565b5b02179055505b5b42600281905550565b600060018060028111156104de576104dd610d0d565b5b600760009054906101000a900460ff166002811115610500576104ff610d0d565b5b1461050a57600080fd5b6000600860003373ffffffffffffffffffffffffffffffffffffffff1673ffffffffffffffffffffffffffffffffffffffff168152602001908152602001600020541161055657600080fd5b6000600860003373ffffffffffffffffffffffffffffffffffffffff1673ffffffffffffffffffffffffffffffffffffffff1681526020019081526020016000205490506000600860003373ffffffffffffffffffffffffffffffffffffffff1673ffffffffffffffffffffffffffffffffffffffff168152602001908152602001600020819055503373ffffffffffffffffffffffffffffffffffffffff166108fc829081150290604051600060405180830381858888f193505050506106665780600860003373ffffffffffffffffffffffffffffffffffffffff1673ffffffffffffffffffffffffffffffffffffffff168152602001908152602001600020819055506000925050610687565b61067b81600354610af090919063ffffffff16565b60038190555060019250505b5090565b600760009054906101000a900460ff1681565b60035481565b60008060028111156106b9576106b8610d0d565b5b600760009054906101000a900460ff1660028111156106db576106da610d0d565b5b146106e557600080fd5b60008054906101000a900473ffffffffffffffffffffffffffffffffffffffff1673ffffffffffffffffffffffffffffffffffffffff163373ffffffffffffffffffffffffffffffffffffffff160361073d57600080fd5b61078f34600860003373ffffffffffffffffffffffffffffffffffffffff1673ffffffffffffffffffffffffffffffffffffffff16815260200190815260200160002054610b0690919063ffffffff16565b600860003373ffffffffffffffffffffffffffffffffffffffff1673ffffffffffffffffffffffffffffffffffffffff168152602001908152602001600020819055506107e734600354610b0690919063ffffffff16565b6003819055507f5cdc4ab8d637538ead6cc1904d4160343656c8c82bd266635cfd31ac008fffe0333460035460405161082293929190610e8b565b60405180910390a1610832610443565b50565b600060608060008060008060008054906101000a900473ffffffffffffffffffffffffffffffffffffffff1696506005805461087090610e4b565b80601f016020809104026020016040519081016040528092919081815260200182805461089c90610e4b565b80156108e95780601f106108be576101008083540402835291602001916108e9565b820191906000526020600020905b8154815290600101906020018083116108cc57829003601f168201915b50505050509550600680546108fd90610e4b565b80601f016020809104026020016040519081016040528092919081815260200182805461092990610e4b565b80156109765780601f1061094b57610100808354040283529160200191610976565b820191906000526020600020905b81548152906001019060200180831161095957829003601f168201915b505050505094506004549350600760009054906101000a900460ff1692506003549150600154905090919293949596565b600060028060028111156109be576109bd610d0d565b5b600760009054906101000a900460ff1660028111156109e0576109df610d0d565b5b146109ea57600080fd5b60006003549050600060038190555060008054906101000a900473ffffffffffffffffffffffffffffffffffffffff1673ffffffffffffffffffffffffffffffffffffffff166108fc829081150290604051600060405180830381858888f1935050505015610ab4577f2f256415efc8561af8db667cb242964b19be7380f379ccdafaa0e54a6f6b706960008054906101000a900473ffffffffffffffffffffffffffffffffffffffff16604051610aa29190610f21565b60405180910390a16001925050610aec565b806003819055506002600760006101000a81548160ff02191690836002811115610ae157610ae0610d0d565b5b021790555060009250505b5090565b60008183610afe9190610f6b565b905092915050565b60008183610b149190610f9f565b905092915050565b600073ffffffffffffffffffffffffffffffffffffffff82169050919050565b6000610b4782610b1c565b9050919050565b610b5781610b3c565b82525050565b6000602082019050610b726000830184610b4e565b92915050565b6000819050919050565b610b8b81610b78565b82525050565b6000602082019050610ba66000830184610b82565b92915050565b600080fd5b6000610bbc82610b1c565b9050919050565b610bcc81610bb1565b8114610bd757600080fd5b50565b600081359050610be981610bc3565b92915050565b600060208284031215610c0557610c04610bac565b5b6000610c1384828501610bda565b91505092915050565b600081519050919050565b600082825260208201905092915050565b60005b83811015610c56578082015181840152602081019050610c3b565b83811115610c65576000848401525b50505050565b6000601f19601f8301169050919050565b6000610c8782610c1c565b610c918185610c27565b9350610ca1818560208601610c38565b610caa81610c6b565b840191505092915050565b60006020820190508181036000830152610ccf8184610c7c565b905092915050565b60008115159050919050565b610cec81610cd7565b82525050565b6000602082019050610d076000830184610ce3565b92915050565b7f4e487b7100000000000000000000000000000000000000000000000000000000600052602160045260246000fd5b60038110610d4d57610d4c610d0d565b5b50565b6000819050610d5e82610d3c565b919050565b6000610d6e82610d50565b9050919050565b610d7e81610d63565b82525050565b6000602082019050610d996000830184610d75565b92915050565b600060e082019050610db4600083018a610b4e565b8181036020830152610dc68189610c7c565b90508181036040830152610dda8188610c7c565b9050610de96060830187610b82565b610df66080830186610d75565b610e0360a0830185610b82565b610e1060c0830184610b82565b98975050505050505050565b7f4e487b7100000000000000000000000000000000000000000000000000000000600052602260045260246000fd5b60006002820490506001821680610e6357607f821691505b602082108103610e7657610e75610e1c565b5b50919050565b610e8581610bb1565b82525050565b6000606082019050610ea06000830186610e7c565b610ead6020830185610b82565b610eba6040830184610b82565b949350505050565b6000819050919050565b6000610ee7610ee2610edd84610b1c565b610ec2565b610b1c565b9050919050565b6000610ef982610ecc565b9050919050565b6000610f0b82610eee565b9050919050565b610f1b81610f00565b82525050565b6000602082019050610f366000830184610f12565b92915050565b7f4e487b7100000000000000000000000000000000000000000000000000000000600052601160045260246000fd5b6000610f7682610b78565b9150610f8183610b78565b925082821015610f9457610f93610f3c565b5b828203905092915050565b6000610faa82610b78565b9150610fb583610b78565b9250827fffffffffffffffffffffffffffffffffffffffffffffffffffffffffffffffff03821115610fea57610fe9610f3c565b5b82820190509291505056fea2646970667358221220f80472b52c3d099c9c42a9a39966b82b3f94c4bb37e1fc3b62772291f3ca71f964736f6c634300080d0033a2646970667358221220e9e32d3adb3d9d225365358ed24abf05059e8e4851f64b85f1f5ce0a04a036f764736f6c634300080d0033",
  "immutableReferences": {},
  "source": "//SPDX-License-Identifier:UNLICENSED\r\npragma solidity >=0.7.0 <0.9.0;\r\n\r\nimport '@openzeppelin/contracts/utils/math/SafeMath.sol';\r\nimport './Project.sol';\r\n\r\ncontract Crowdfunding {\r\n    using SafeMath for uint256;\r\n\r\n    // List of existing projects\r\n    Project[] private allProjects;\r\n\r\n    // Event that will be emitted whenever a new project is started\r\n    event ProjectStarted(\r\n        address contractAddress,\r\n        address projectStarter,\r\n        string projectTitle,\r\n        string projectDesc,\r\n        uint256 deadline,\r\n        uint256 goalAmount\r\n    );\r\n\r\n    function startProject(\r\n        string calldata title,\r\n        string calldata description,\r\n        uint durationInDays,\r\n        uint amountToRaise\r\n    ) external {\r\n        uint raiseUntil = block.timestamp.add(durationInDays.mul(1 days));\r\n        Project newProject = new Project(payable(msg.sender), title, description, raiseUntil, amountToRaise);\r\n        allProjects.push(newProject);\r\n        emit ProjectStarted(\r\n            address(newProject),\r\n            msg.sender,\r\n            title,\r\n            description,\r\n            raiseUntil,\r\n            amountToRaise\r\n        );\r\n    }                                                                                                                                   \r\n\r\n    function returnAllProjects() external view returns(Project[] memory){\r\n        return allProjects;\r\n    }\r\n}",
  "sourcePath": "C:\\Users\\Hardik\\Desktop\\blockchain\\minor-project-final\\contracts\\Crowdfunding.sol",
  "compiler": {
    "name": "solc",
    "version": "0.8.13+commit.abaa5c0e.Emscripten.clang"
  },
  "schemaVersion": "3.4.7",
  "updatedAt": "2022-04-28T20:05:55.031Z",
  "networkType": "ethereum",
  "devdoc": {
    "kind": "dev",
    "methods": {},
    "version": 1
  },
  "userdoc": {
    "kind": "user",
    "methods": {},
    "version": 1
  }
}