{
  "contractName": "Project",
  "abi": [
    {
      "inputs": [
        {
          "internalType": "address payable",
          "name": "projectStarter",
          "type": "address"
        },
        {
          "internalType": "string",
          "name": "projectTitle",
          "type": "string"
        },
        {
          "internalType": "string",
          "name": "projectDesc",
          "type": "string"
        },
        {
          "internalType": "uint256",
          "name": "fundRaisingDeadline",
          "type": "uint256"
        },
        {
          "internalType": "uint256",
          "name": "goalAmount",
          "type": "uint256"
        }
      ],
      "stateMutability": "nonpayable",
      "type": "constructor"
    },
    {
      "anonymous": false,
      "inputs": [
        {
          "indexed": false,
          "internalType": "address",
          "name": "recipient",
          "type": "address"
        }
      ],
      "name": "CreatorPaid",
      "type": "event"
    },
    {
      "anonymous": false,
      "inputs": [
        {
          "indexed": false,
          "internalType": "address",
          "name": "contributor",
          "type": "address"
        },
        {
          "indexed": false,
          "internalType": "uint256",
          "name": "amount",
          "type": "uint256"
        },
        {
          "indexed": false,
          "internalType": "uint256",
          "name": "currentTotal",
          "type": "uint256"
        }
      ],
      "name": "FundingReceived",
      "type": "event"
    },
    {
      "inputs": [],
      "name": "amountGoal",
      "outputs": [
        {
          "internalType": "uint256",
          "name": "",
          "type": "uint256"
        }
      ],
      "stateMutability": "view",
      "type": "function"
    },
    {
      "inputs": [],
      "name": "completeAt",
      "outputs": [
        {
          "internalType": "uint256",
          "name": "",
          "type": "uint256"
        }
      ],
      "stateMutability": "view",
      "type": "function"
    },
    {
      "inputs": [
        {
          "internalType": "address",
          "name": "",
          "type": "address"
        }
      ],
      "name": "contributions",
      "outputs": [
        {
          "internalType": "uint256",
          "name": "",
          "type": "uint256"
        }
      ],
      "stateMutability": "view",
      "type": "function"
    },
    {
      "inputs": [],
      "name": "creator",
      "outputs": [
        {
          "internalType": "address payable",
          "name": "",
          "type": "address"
        }
      ],
      "stateMutability": "view",
      "type": "function"
    },
    {
      "inputs": [],
      "name": "currentBalance",
      "outputs": [
        {
          "internalType": "uint256",
          "name": "",
          "type": "uint256"
        }
      ],
      "stateMutability": "view",
      "type": "function"
    },
    {
      "inputs": [],
      "name": "description",
      "outputs": [
        {
          "internalType": "string",
          "name": "",
          "type": "string"
        }
      ],
      "stateMutability": "view",
      "type": "function"
    },
    {
      "inputs": [],
      "name": "raiseBy",
      "outputs": [
        {
          "internalType": "uint256",
          "name": "",
          "type": "uint256"
        }
      ],
      "stateMutability": "view",
      "type": "function"
    },
    {
      "inputs": [],
      "name": "state",
      "outputs": [
        {
          "internalType": "enum Project.State",
          "name": "",
          "type": "uint8"
        }
      ],
      "stateMutability": "view",
      "type": "function"
    },
    {
      "inputs": [],
      "name": "title",
      "outputs": [
        {
          "internalType": "string",
          "name": "",
          "type": "string"
        }
      ],
      "stateMutability": "view",
      "type": "function"
    },
    {
      "inputs": [],
      "name": "contribute",
      "outputs": [],
      "stateMutability": "payable",
      "type": "function"
    },
    {
      "inputs": [],
      "name": "checkIfFundingCompleteOrExpired",
      "outputs": [],
      "stateMutability": "nonpayable",
      "type": "function"
    },
    {
      "inputs": [],
      "name": "getRefund",
      "outputs": [
        {
          "internalType": "bool",
          "name": "",
          "type": "bool"
        }
      ],
      "stateMutability": "nonpayable",
      "type": "function"
    },
    {
      "inputs": [],
      "name": "getDetails",
      "outputs": [
        {
          "internalType": "address payable",
          "name": "projectStarter",
          "type": "address"
        },
        {
          "internalType": "string",
          "name": "projectTitle",
          "type": "string"
        },
        {
          "internalType": "string",
          "name": "projectDesc",
          "type": "string"
        },
        {
          "internalType": "uint256",
          "name": "deadline",
          "type": "uint256"
        },
        {
          "internalType": "enum Project.State",
          "name": "currentState",
          "type": "uint8"
        },
        {
          "internalType": "uint256",
          "name": "currentAmount",
          "type": "uint256"
        },
        {
          "internalType": "uint256",
          "name": "goalAmount",
          "type": "uint256"
        }
      ],
      "stateMutability": "view",
      "type": "function"
    }
  ],
  "bytecode": "0x60806040526000600760006101000a81548160ff021916908360028111156200002d576200002c620001a8565b5b02179055503480156200003f57600080fd5b506040516200157938038062001579833981810160405281019062000065919062000414565b846000806101000a81548173ffffffffffffffffffffffffffffffffffffffff021916908373ffffffffffffffffffffffffffffffffffffffff1602179055508360059080519060200190620000bd929190620000f8565b508260069080519060200190620000d6929190620000f8565b508060018190555081600481905550600060038190555050505050506200053e565b828054620001069062000509565b90600052602060002090601f0160209004810192826200012a576000855562000176565b82601f106200014557805160ff191683800117855562000176565b8280016001018555821562000176579182015b828111156200017557825182559160200191906001019062000158565b5b50905062000185919062000189565b5090565b5b80821115620001a45760008160009055506001016200018a565b5090565b7f4e487b7100000000000000000000000000000000000000000000000000000000600052602160045260246000fd5b6000604051905090565b600080fd5b600080fd5b600073ffffffffffffffffffffffffffffffffffffffff82169050919050565b60006200021882620001eb565b9050919050565b6200022a816200020b565b81146200023657600080fd5b50565b6000815190506200024a816200021f565b92915050565b600080fd5b600080fd5b6000601f19601f8301169050919050565b7f4e487b7100000000000000000000000000000000000000000000000000000000600052604160045260246000fd5b620002a5826200025a565b810181811067ffffffffffffffff82111715620002c757620002c66200026b565b5b80604052505050565b6000620002dc620001d7565b9050620002ea82826200029a565b919050565b600067ffffffffffffffff8211156200030d576200030c6200026b565b5b62000318826200025a565b9050602081019050919050565b60005b838110156200034557808201518184015260208101905062000328565b8381111562000355576000848401525b50505050565b6000620003726200036c84620002ef565b620002d0565b90508281526020810184848401111562000391576200039062000255565b5b6200039e84828562000325565b509392505050565b600082601f830112620003be57620003bd62000250565b5b8151620003d08482602086016200035b565b91505092915050565b6000819050919050565b620003ee81620003d9565b8114620003fa57600080fd5b50565b6000815190506200040e81620003e3565b92915050565b600080600080600060a08688031215620004335762000432620001e1565b5b6000620004438882890162000239565b955050602086015167ffffffffffffffff811115620004675762000466620001e6565b5b6200047588828901620003a6565b945050604086015167ffffffffffffffff811115620004995762000498620001e6565b5b620004a788828901620003a6565b9350506060620004ba88828901620003fd565b9250506080620004cd88828901620003fd565b9150509295509295909350565b7f4e487b7100000000000000000000000000000000000000000000000000000000600052602260045260246000fd5b600060028204905060018216806200052257607f821691505b602082108103620005385762000537620004da565b5b50919050565b61102b806200054e6000396000f3fe6080604052600436106100c25760003560e01c80637284e4161161007f578063c19d93fb11610059578063c19d93fb14610248578063ce845d1d14610273578063d7bb99ba1461029e578063fbbf93a0146102a8576100c2565b80637284e416146101db57806386f3258614610206578063b2d5ae441461021d576100c2565b806302d05d3f146100c75780630785001c146100f257806337f944cc1461011d57806342e94c90146101485780634a79d50c146101855780634c4cea5a146101b0575b600080fd5b3480156100d357600080fd5b506100dc6102d9565b6040516100e99190610b5d565b60405180910390f35b3480156100fe57600080fd5b506101076102fd565b6040516101149190610b91565b60405180910390f35b34801561012957600080fd5b50610132610303565b60405161013f9190610b91565b60405180910390f35b34801561015457600080fd5b5061016f600480360381019061016a9190610bef565b610309565b60405161017c9190610b91565b60405180910390f35b34801561019157600080fd5b5061019a610321565b6040516101a79190610cb5565b60405180910390f35b3480156101bc57600080fd5b506101c56103af565b6040516101d29190610b91565b60405180910390f35b3480156101e757600080fd5b506101f06103b5565b6040516101fd9190610cb5565b60405180910390f35b34801561021257600080fd5b5061021b610443565b005b34801561022957600080fd5b506102326104c7565b60405161023f9190610cf2565b60405180910390f35b34801561025457600080fd5b5061025d61068b565b60405161026a9190610d84565b60405180910390f35b34801561027f57600080fd5b5061028861069e565b6040516102959190610b91565b60405180910390f35b6102a66106a4565b005b3480156102b457600080fd5b506102bd610835565b6040516102d09796959493929190610d9f565b60405180910390f35b60008054906101000a900473ffffffffffffffffffffffffffffffffffffffff1681565b60015481565b60045481565b60086020528060005260406000206000915090505481565b6005805461032e90610e4b565b80601f016020809104026020016040519081016040528092919081815260200182805461035a90610e4b565b80156103a75780601f1061037c576101008083540402835291602001916103a7565b820191906000526020600020905b81548152906001019060200180831161038a57829003601f168201915b505050505081565b60025481565b600680546103c290610e4b565b80601f01602080910402602001604051908101604052809291908181526020018280546103ee90610e4b565b801561043b5780601f106104105761010080835404028352916020019161043b565b820191906000526020600020905b81548152906001019060200180831161041e57829003601f168201915b505050505081565b60015460035410610487576002600760006101000a81548160ff0219169083600281111561047457610473610d0d565b5b02179055506104816109a7565b506104be565b6004544211156104bd576001600760006101000a81548160ff021916908360028111156104b7576104b6610d0d565b5b02179055505b5b42600281905550565b600060018060028111156104de576104dd610d0d565b5b600760009054906101000a900460ff166002811115610500576104ff610d0d565b5b1461050a57600080fd5b6000600860003373ffffffffffffffffffffffffffffffffffffffff1673ffffffffffffffffffffffffffffffffffffffff168152602001908152602001600020541161055657600080fd5b6000600860003373ffffffffffffffffffffffffffffffffffffffff1673ffffffffffffffffffffffffffffffffffffffff1681526020019081526020016000205490506000600860003373ffffffffffffffffffffffffffffffffffffffff1673ffffffffffffffffffffffffffffffffffffffff168152602001908152602001600020819055503373ffffffffffffffffffffffffffffffffffffffff166108fc829081150290604051600060405180830381858888f193505050506106665780600860003373ffffffffffffffffffffffffffffffffffffffff1673ffffffffffffffffffffffffffffffffffffffff168152602001908152602001600020819055506000925050610687565b61067b81600354610af090919063ffffffff16565b60038190555060019250505b5090565b600760009054906101000a900460ff1681565b60035481565b60008060028111156106b9576106b8610d0d565b5b600760009054906101000a900460ff1660028111156106db576106da610d0d565b5b146106e557600080fd5b60008054906101000a900473ffffffffffffffffffffffffffffffffffffffff1673ffffffffffffffffffffffffffffffffffffffff163373ffffffffffffffffffffffffffffffffffffffff160361073d57600080fd5b61078f34600860003373ffffffffffffffffffffffffffffffffffffffff1673ffffffffffffffffffffffffffffffffffffffff16815260200190815260200160002054610b0690919063ffffffff16565b600860003373ffffffffffffffffffffffffffffffffffffffff1673ffffffffffffffffffffffffffffffffffffffff168152602001908152602001600020819055506107e734600354610b0690919063ffffffff16565b6003819055507f5cdc4ab8d637538ead6cc1904d4160343656c8c82bd266635cfd31ac008fffe0333460035460405161082293929190610e8b565b60405180910390a1610832610443565b50565b600060608060008060008060008054906101000a900473ffffffffffffffffffffffffffffffffffffffff1696506005805461087090610e4b565b80601f016020809104026020016040519081016040528092919081815260200182805461089c90610e4b565b80156108e95780601f106108be576101008083540402835291602001916108e9565b820191906000526020600020905b8154815290600101906020018083116108cc57829003601f168201915b50505050509550600680546108fd90610e4b565b80601f016020809104026020016040519081016040528092919081815260200182805461092990610e4b565b80156109765780601f1061094b57610100808354040283529160200191610976565b820191906000526020600020905b81548152906001019060200180831161095957829003601f168201915b505050505094506004549350600760009054906101000a900460ff1692506003549150600154905090919293949596565b600060028060028111156109be576109bd610d0d565b5b600760009054906101000a900460ff1660028111156109e0576109df610d0d565b5b146109ea57600080fd5b60006003549050600060038190555060008054906101000a900473ffffffffffffffffffffffffffffffffffffffff1673ffffffffffffffffffffffffffffffffffffffff166108fc829081150290604051600060405180830381858888f1935050505015610ab4577f2f256415efc8561af8db667cb242964b19be7380f379ccdafaa0e54a6f6b706960008054906101000a900473ffffffffffffffffffffffffffffffffffffffff16604051610aa29190610f21565b60405180910390a16001925050610aec565b806003819055506002600760006101000a81548160ff02191690836002811115610ae157610ae0610d0d565b5b021790555060009250505b5090565b60008183610afe9190610f6b565b905092915050565b60008183610b149190610f9f565b905092915050565b600073ffffffffffffffffffffffffffffffffffffffff82169050919050565b6000610b4782610b1c565b9050919050565b610b5781610b3c565b82525050565b6000602082019050610b726000830184610b4e565b92915050565b6000819050919050565b610b8b81610b78565b82525050565b6000602082019050610ba66000830184610b82565b92915050565b600080fd5b6000610bbc82610b1c565b9050919050565b610bcc81610bb1565b8114610bd757600080fd5b50565b600081359050610be981610bc3565b92915050565b600060208284031215610c0557610c04610bac565b5b6000610c1384828501610bda565b91505092915050565b600081519050919050565b600082825260208201905092915050565b60005b83811015610c56578082015181840152602081019050610c3b565b83811115610c65576000848401525b50505050565b6000601f19601f8301169050919050565b6000610c8782610c1c565b610c918185610c27565b9350610ca1818560208601610c38565b610caa81610c6b565b840191505092915050565b60006020820190508181036000830152610ccf8184610c7c565b905092915050565b60008115159050919050565b610cec81610cd7565b82525050565b6000602082019050610d076000830184610ce3565b92915050565b7f4e487b7100000000000000000000000000000000000000000000000000000000600052602160045260246000fd5b60038110610d4d57610d4c610d0d565b5b50565b6000819050610d5e82610d3c565b919050565b6000610d6e82610d50565b9050919050565b610d7e81610d63565b82525050565b6000602082019050610d996000830184610d75565b92915050565b600060e082019050610db4600083018a610b4e565b8181036020830152610dc68189610c7c565b90508181036040830152610dda8188610c7c565b9050610de96060830187610b82565b610df66080830186610d75565b610e0360a0830185610b82565b610e1060c0830184610b82565b98975050505050505050565b7f4e487b7100000000000000000000000000000000000000000000000000000000600052602260045260246000fd5b60006002820490506001821680610e6357607f821691505b602082108103610e7657610e75610e1c565b5b50919050565b610e8581610bb1565b82525050565b6000606082019050610ea06000830186610e7c565b610ead6020830185610b82565b610eba6040830184610b82565b949350505050565b6000819050919050565b6000610ee7610ee2610edd84610b1c565b610ec2565b610b1c565b9050919050565b6000610ef982610ecc565b9050919050565b6000610f0b82610eee565b9050919050565b610f1b81610f00565b82525050565b6000602082019050610f366000830184610f12565b92915050565b7f4e487b7100000000000000000000000000000000000000000000000000000000600052601160045260246000fd5b6000610f7682610b78565b9150610f8183610b78565b925082821015610f9457610f93610f3c565b5b828203905092915050565b6000610faa82610b78565b9150610fb583610b78565b9250827fffffffffffffffffffffffffffffffffffffffffffffffffffffffffffffffff03821115610fea57610fe9610f3c565b5b82820190509291505056fea2646970667358221220f80472b52c3d099c9c42a9a39966b82b3f94c4bb37e1fc3b62772291f3ca71f964736f6c634300080d0033",
  "immutableReferences": {},
  "source": "//SPDX-License-Identifier:UNLICENSED\r\npragma solidity >=0.7.0 <0.9.0;\r\n\r\nimport '@openzeppelin/contracts/utils/math/SafeMath.sol';\r\n\r\ncontract Project {\r\n    using SafeMath for uint256;\r\n    \r\n    enum State {\r\n        Fundraising,\r\n        Expired,\r\n        Successful\r\n    }\r\n\r\n    // State variables\r\n    address payable public creator;\r\n    uint public amountGoal; // required to reach at least this much, else everyone gets refund\r\n    uint public completeAt;\r\n    uint256 public currentBalance;\r\n    uint public raiseBy;\r\n    string public title;\r\n    string public description;\r\n    State public state = State.Fundraising; // initialize on create\r\n    mapping (address => uint) public contributions;\r\n\r\n    // Event that will be emitted whenever funding will be received\r\n    event FundingReceived(address contributor, uint amount, uint currentTotal);\r\n\r\n    // Event that will be emitted whenever the project starter has received the funds\r\n    event CreatorPaid(address recipient);\r\n\r\n    // Modifier to check current state\r\n    modifier inState(State _state) {\r\n        require(state == _state);\r\n        _;\r\n    }\r\n\r\n    // Modifier to check if the function caller is the project creator\r\n    modifier isCreator() {\r\n        require(msg.sender == creator);\r\n        _;\r\n    }\r\n\r\n    constructor(\r\n        address payable projectStarter,\r\n        string memory projectTitle,\r\n        string memory projectDesc,\r\n        uint fundRaisingDeadline,\r\n        uint goalAmount\r\n    ) {\r\n        creator = projectStarter;\r\n        title = projectTitle;\r\n        description = projectDesc;\r\n        amountGoal = goalAmount;\r\n        raiseBy = fundRaisingDeadline;\r\n        currentBalance = 0;\r\n    }\r\n\r\n    function contribute() external inState(State.Fundraising) payable {\r\n        require(msg.sender != creator);\r\n        contributions[msg.sender] = contributions[msg.sender].add(msg.value);\r\n        currentBalance = currentBalance.add(msg.value);\r\n        emit FundingReceived(msg.sender, msg.value, currentBalance);\r\n        checkIfFundingCompleteOrExpired();\r\n    }\r\n\r\n    function checkIfFundingCompleteOrExpired() public {\r\n        if (currentBalance >= amountGoal) {\r\n            state = State.Successful;\r\n            payOut();\r\n        } else if (block.timestamp > raiseBy)  {\r\n            state = State.Expired;\r\n        }\r\n        completeAt = block.timestamp;\r\n    }\r\n\r\n    function payOut() internal inState(State.Successful) returns (bool) {\r\n        uint256 totalRaised = currentBalance;\r\n        currentBalance = 0;\r\n\r\n        if (creator.send(totalRaised)) {\r\n            emit CreatorPaid(creator);\r\n            return true;\r\n        } else {\r\n            currentBalance = totalRaised;\r\n            state = State.Successful;\r\n        }\r\n\r\n        return false;\r\n    }\r\n\r\n    function getRefund() public inState(State.Expired) returns (bool) {\r\n        require(contributions[msg.sender] > 0);\r\n\r\n        uint amountToRefund = contributions[msg.sender];\r\n        contributions[msg.sender] = 0;\r\n\r\n        if (!(payable(msg.sender).send(amountToRefund))) {\r\n            contributions[msg.sender] = amountToRefund;\r\n            return false;\r\n        } else {\r\n            currentBalance = currentBalance.sub(amountToRefund);\r\n        }\r\n\r\n        return true;\r\n    }\r\n\r\n    function getDetails() public view returns \r\n    (\r\n        address payable projectStarter,\r\n        string memory projectTitle,\r\n        string memory projectDesc,\r\n        uint256 deadline,\r\n        State currentState,\r\n        uint256 currentAmount,\r\n        uint256 goalAmount\r\n    ) {\r\n        projectStarter = creator;\r\n        projectTitle = title;\r\n        projectDesc = description;\r\n        deadline = raiseBy;\r\n        currentState = state;\r\n        currentAmount = currentBalance;\r\n        goalAmount = amountGoal;\r\n    }\r\n}",
  "sourcePath": "C:\\Users\\Hardik\\Desktop\\blockchain\\minor-project-final\\contracts\\Project.sol",
  "compiler": {
    "name": "solc",
    "version": "0.8.13+commit.abaa5c0e.Emscripten.clang"
  },
  "schemaVersion": "3.4.7",
  "updatedAt": "2022-04-28T19:52:03.039Z",
  "devdoc": {
    "kind": "dev",
    "methods": {},
    "version": 1
  },
  "userdoc": {
    "kind": "user",
    "methods": {},
    "version": 1
  }
}